S01C000061746D65676131365F74656D705F73656E736F722E7372656324
S11300000C94A7000C9462010C9471010C94C4002C
S11300100C94C4000C94C4000C94C4000C94C4004C
S11300200C94C4000C9480010C94C4000C94C4007F
S11300300C94C4000C94C4000C94C4000C94C4002C
S11300400C94C4000C94C4000C94C4000C94C4001C
S11300500C94C40000407A10F35A00A0724E1809A0
S11300600010A5D4E80000E87648170000E40B541B
S1130070020000CA9A3B000000E1F50500008096EA
S11300809800000040420F000000A086010000001C
S1130090102700000000E8030000000064000000D6
S11300A000000A00000000000100000000002C769F
S11300B0D888DC674F0823DFC1DFAE59E1B1B796BA
S11300C0E5E3E453C63AE651997696E8E6C2842617
S11300D0EB898C9B62ED407C6FFCEFBC9C9F40F2F3
S11300E0BAA56FA5F490055A2AF75C936B6CF9676F
S11300F06DC11BFCE0E40D47FEF520E6B500D0ED34
S1130100902E0300943577050080841E080000209B
S11301104E0A000000C80C333333330F986E128339
S11301201141EF8D2114893BE65516CFFEE6DB180D
S1130130D1844B381BF77C1D901DA4BBE4242032D2
S113014084725E228100C9F124ECA1E53D271124CB
S11301501FBECFE5D4E0DEBFCDBF10E0A0E6B0E027
S1130160EEE0F0E102C005900D92AE3DB107D9F783
S113017020E0AEEDB0E001C01D92A33FB207E1F76D
S11301800E94BD030C9405080C94000095B39F7065
S113019095BB25B330E1839FC0011124822B85BB1D
S11301A0AA9A85E88A95F1F70000AA9835E83A9565
S11301B0F1F700000895CF93C82F82958F700E94A5
S11301C0C6008C2F0E94C6008FE19EE40197F1F7D0
S11301D000C00000CF9108952FE788E391E02150FB
S11301E080409040E1F700C00000A898A99883E0FF
S11301F00E94C6008FE19EE40197F1F700C0000061
S113020083E00E94C6008FE19EE40197F1F700C0ED
S1130210000083E00E94C6008FE19EE40197F1F79D
S113022000C0000082E00E94C6008FE19EE40197B6
S1130230F1F700C0000088E20E94DB0088E00E9421
S1130240DB008CE00E94DB0086E00E94DB0081E0A2
S11302500E94DB000895611102C0805801C08054DF
S11302600E94DB000895A89A0E94DB00A8980895D4
S1130270CF93DF93EC018881882331F021960E948B
S1130280330189918111FBCFDF91CF9108950F93B1
S11302901F93CF93DF938B01880F880F880F80649F
S11302A00E94DB00A89AE801085F1F4F89910E9411
S11302B0DB00C017D107D1F7A898DF91CF911F9128
S11302C00F9108951F920F920FB60F9211248F93DE
S11302D081E08093E5008F910F900FBE0F901F90E7
S11302E018951F920F920FB60F9211248F9381E0ED
S11302F08093E4008F910F900FBE0F901F9018957C
S11303001F920F920FB60F9211248F939F93809197
S1130310E2008F5F803118F48093E2000AC01092EB
S1130320E20081E08093E1009091E000891B8093DA
S1130330E0008091DF008F5F8F3118F48093DF003D
S113034005C01092DF0081E08093DE009F918F91C1
S11303500F900FBE0F901F9018958BB7806C8BBFBA
S113036085B7886085BF83B7856083BF12BE89B7B0
S1130370816089BF789408951ABA8BB38BBB87E8E0
S113038086B980EC87B908958770806C87B9369AEE
S1130390349BFECF349A8FEC97E00197F1F700C0BD
S11303A0000084B195B108950E94EC0068E970E002
S11303B080E00E94470160E970E081E00E9447010B
S11303C068E870E082E00E94470160E870E083E042
S11303D00E94470168E770E084E00E94470160E7FB
S11303E070E085E00E94470168E670E086E00E94C4
S11303F0470160E670E087E00E944701089587B3F3
S1130400876087BB88B3876088BB0E94BC018FEF7D
S113041084BBAB9A0E94D40111BA80B78B7F80BF92
S113042082B38C6082BB0E94AD0108958091E30089
S11304308F5F8093E300823019F1833019F08130AB
S113044039F50BC01092E30061E083E00E942B01B8
S113045080EA90E00E943801089561E083E00E9400
S11304602B018FED0E9433018BEA90E00E9438014A
S11304708FED0E94330183EB90E00E9438010895D0
S113048061E083E00E942B0185EB90E00E9438013B
S113049008958091E3008130F1F018F0823031F159
S11304A0089588B3887F88BBAB9888E00E94DB00FE
S11304B085B7806485BF85B78F74806285BF889552
S11304C085B78F7B85BF88B3876088BBAB9A8CE088
S11304D00E94DB0008958091E6008F5F833019F05D
S11304E08093E60008951092E600089595B388E09D
S11304F0892785BB0895CF93C42F0E942B018C2F8D
S11305000E943301CF9108958091E7009091E80013
S1130510009709F445C086399105D0F48091E00034
S1130520882359F044E060E083E00E947B0244E0C9
S113053060E08CE00E947B024CC045E060E083E018
S11305400E947B0245E060E08CE00E947B0241C097
S113055081399140D0F08091E000882359F042E045
S113056060E083E00E947B0242E060E08CE00E9455
S11305707B022FC043E060E083E00E947B0243E003
S113058060E08CE00E947B0224C04FEF60E083E0D7
S11305900E947B024FEF60E08CE00E947B0219C056
S11305A08091E000882359F041E260E083E00E94FA
S11305B07B0241E260E08CE00E947B020AC040E2E0
S11305C060E083E00E947B0240E260E08CE00E94F5
S11305D07B028091E300882319F08230D9F00895DA
S11305E08091E000882359F046E061E083E00E94B6
S11305F07B0246E061E08CE00E947B02089547E0C4
S113060061E083E00E947B0247E061E08CE00E94AD
S11306107B020895AB9B0BC041E061E083E00E9444
S11306207B0241E061E08CE00E947B02089540E09F
S113063061E083E00E947B0240E061E08CE00E9484
S11306407B02089580E00E94C401BC019093E800FD
S11306508093E7008091E6008130B9F018F0823091
S113066069F1089580E090E00E9481042DEC3CEC57
S11306704CEC5DE30E940F056093EF007093F00073
S11306808093F1009093F200089580E090E00E943E
S113069081042DEC3CEC4CEC5DE30E940F0523E35C
S11306A033E948E853E40E9415046093EF00709323
S11306B0F0008093F1009093F200089580E090E0C0
S11306C00E9481042CEE31E548E35EE30E940F05AD
S11306D020E030E040E052E40E9415046093EF0013
S11306E07093F0008093F1009093F20008950F93BB
S11306F01F938091E7009091E800892BB1F06091FD
S1130700EF007091F0008091F1009091F20009EEF9
S113071010E022E046E00E947C0560E084E00E9454
S11307202B01C8010E94380108C060E084E00E94E7
S11307302B0180EC90E00E9438011F910F910895E5
S11307408091E600813061F018F0823071F00895F4
S11307508FED0E94330187EC90E00E9438010895E8
S113076089EC90E00E94380108958FED0E943301D6
S113077083EB90E00E94380108950E94FF0160E03D
S113078080E00E942B01C0E1D0E08FEF0E94330192
S11307908FE59AEE0197F1F700C000002197A9F7C1
S11307A061E080E00E942B018CEC90E00E94380113
S11307B061E083E00E942B0186E00E94330161E046
S11307C08CE00E942B0186E00E9433018091E500B9
S11307D0882321F01092E5000E9416028091E40023
S11307E0882321F01092E4000E9449028091E100E4
S11307F0882321F01092E1000E9484028091DE009F
S1130800882341F01092DE000E9422030E947703A5
S11308100E94A0039FEF21EE84E09150204080408D
S1130820E1F700C00000D2CF5058BB27AA270E948E
S11308302C040C94D5040E94C70438F00E94CE0402
S113084020F039F49F3F19F426F40C94C4040EF4F8
S1130850E095E7FB0C94BE04E92F0E94E60458F3EC
S1130860BA17620773078407950720F079F4A6F591
S11308700C9408050EF4E0950B2EBA2FA02D0B0155
S1130880B90190010C01CA01A0011124FF27591BD1
S113089099F0593F50F4503E68F11A16F040A22FD7
S11308A0232F342F4427585FF3CF46953795279548
S11308B0A795F0405395C9F77EF41F16BA0B620B47
S11308C0730B840BBAF09150A1F0FF0FBB1F661F8E
S11308D0771F881FC2F70EC0BA0F621F731F841FD1
S11308E048F4879577956795B795F7959E3F08F0F7
S11308F0B0CF9395880F08F09927EE0F97958795B9
S11309000895E89409C097FB3EF4909580957095FE
S113091061957F4F8F4F9F4F9923A9F0F92F96E947
S1130920BB279395F695879577956795B795F111BC
S1130930F8CFFAF4BB0F11F460FF1BC06F5F7F4F59
S11309408F4F9F4F16C0882311F096E911C077236B
S113095021F09EE8872F762F05C0662371F096E874
S1130960862F70E060E02AF09A95660F771F881F43
S1130970DAF7880F9695879597F9089597F99F6701
S113098080E870E060E008959FEF80EC0895002413
S11309900A941616170618060906089500240A94E0
S11309A012161306140605060895092E0394000C66
S11309B011F4882352F0BB0F40F4BF2B11F460FFF5
S11309C004C06F5F7F4F8F4F9F4F089557FD90581E
S11309D0440F551F59F05F3F71F04795880F97FBFF
S11309E0991F61F09F3F79F08795089512161306B9
S11309F01406551FF2CF4695F1DF08C016161706E8
S1130A001806991FF1CF869571056105089408951C
S1130A10E894BB2766277727CB0197F908950E94AE
S1130A2022050C94D5040E94C70438F00E94CE0419
S1130A3020F0952311F00C94BE040C94C4041124EA
S1130A400C9409050E94E60470F3959FC1F3950F79
S1130A5050E0551F629FF001729FBB27F00DB11D3E
S1130A60639FAA27F00DB11DAA1F649F6627B00DCE
S1130A70A11D661F829F2227B00DA11D621F739FB7
S1130A80B00DA11D621F839FA00D611D221F749FC5
S1130A903327A00D611D231F849F600D211D822F0C
S1130AA0762F6A2F11249F5750409AF0F1F0882333
S1130AB04AF0EE0FFF1FBB1F661F771F881F915060
S1130AC05040A9F79E3F510580F00C94BE040C944D
S1130AD009055F3FE4F3983ED4F3869577956795CF
S1130AE0B795F795E7959F5FC1F7FE2B880F911D8A
S1130AF09695879597F90895EF920F931F93CF9347
S1130B00DF93E80147FD02C034E001C034E1042E64
S1130B10000C550B57FF03C0519541955109E32E25
S1130B20022F242FAE010E949C05CE01DF91CF91AC
S1130B301F910F91EF900895A9E0B0E0E2EAF5E08B
S1130B400C94D4076A01122FB02E2BE3201720F047
S1130B50FF24F394F00E02C02CE3F22E0F2D27E0B5
S1130B60AE014F5F5F4F0E94F606BC014981842F9E
S1130B708970813031F0E1FC06C0E0FE06C090E2ED
S1130B8005C09DE203C09BE201C090E05E2D507160
S1130B9043FF3CC0911102C083E001C084E081178F
S1130BA018F4212F281B01C020E051110BC0F601BD
S1130BB0822F30E2882319F031938150FBCFC20E8B
S1130BC0D11C20E0992329F0D6019C93F60131969B
S1130BD06F01C6010396E2FE0AC03EE4D6013C93CF
S1130BE041E411964C93119712963C9306C03EE64D
S1130BF0F601308341E641833283FC01322F40E227
S1130C00332309F442C041933150FACF42FF44C028
S1130C10911102C083E001C084E0811718F4212FF0
S1130C20281B01C020E051110BC0F601822F30E2D5
S1130C30882319F031938150FBCFC20ED11C20E0E0
S1130C40992329F0D6019C93F60131966F01C601D0
S1130C500396E2FE0BC039E4D6013C933EE41196C0
S1130C603C93119736E412963C9307C039E6F6019B
S1130C7030833EE6318336E63283FC01322F40E294
S1130C80332319F041933150FBCFFC01E20FF11DE6
S1130C9010828EEF9FEFA6C021E030E0911102C0D8
S1130CA020E030E0161617061CF4FB01319602C052
S1130CB0E1E0F0E02E0F3F1FBB2021F0EB2DF0E030
S1130CC0319602C0E0E0F0E02E0F3F1FE12FF0E08C
S1130CD02E173F071CF4121B212F01C020E08E2D7C
S1130CE0887159F4F601822F30E2882319F0319388
S1130CF08150FBCFC20ED11C20E0992329F0D601EC
S1130D009C93F60131966F0151110BC0F601822FAD
S1130D1090E3882319F091938150FBCFC20ED11C2C
S1130D2020E00F2D060F9A81342F307144FF03C049
S1130D30913309F40150101624F4093018F008E036
S1130D4001C001E0AB0177FF02C040E050E0FB01CD
S1130D50E41BF50BA1E0B0E0AC0FBD1FEA0FFB1FD5
S1130D608EE2A82E4B01801A91080B2D10E01195EC
S1130D70019511094F3FBFEF5B0721F4D601AC92F7
S1130D8011966D01641775072CF08416950614F4FA
S1130D90818101C080E3415051093196D6011196F9
S1130DA07D014017510724F0D6018C936701E2CFEF
S1130DB06417750739F4963320F4953319F4311117
S1130DC001C081E3F6018083F701822F90E288233A
S1130DD019F091938150FBCFF701E20FF11D1082BE
S1130DE080E090E02996ECE00C94F007283008F0BD
S1130DF027E03327DA01990F311D87FD91600096B2
S1130E006105710539F432602E5F3D9330E32A9514
S1130E10E1F708959F3F30F080387105610509F0CE
S1130E203C5F3C5F3D93913008F08068911DDF93F7
S1130E30CF931F930F93FF92EF92192F987F96955C
S1130E40E92F96959695E90FFF27E255FF4F9927CD
S1130E503327EE24FF24A701E701059008940794A3
S1130E6028F4360FE71EF81E491F511D660F771F21
S1130E70881F991F0694A1F70590079428F4E70E9C
S1130E80F81E491F561FC11D770F881F991F661F23
S1130E900694A1F70590079428F4F80E491F561FED
S1130EA0C71FD11D880F991F661F771F0694A1F7CE
S1130EB00590079420F4490F561FC71FD81F990F98
S1130EC0661F771F881F0694A9F7849110951770E1
S1130ED041F0D695C79557954795F794E7941A9599
S1130EE0C1F7E4E5F0E068941590159135916591AA
S1130EF0959105907FE27395E118F10A430B560B27
S1130F00C90BD009C0F7E10CF11E431F561FC91FBE
S1130F10D01D7EF4703311F48A95E6CFE894015025
S1130F2030F0080F0AF40027021708F4202F239545
S1130F30022F7A3328F079E37D932A95E9F710C0DC
S1130F407D932A9589F60694979567953795179515
S1130F501794E118F10A430B560BC90BD00998F00A
S1130F6023957E9173957A3308F070E37C93201374
S1130F70B8F77E9170617D9330F0839571E37D9332
S1130F8070E32A95E1F71124EF90FF900F911F91E0
S1130F90CF91DF91992787FD909508952F923F92E5
S1130FA04F925F926F927F928F929F92AF92BF9275
S1130FB0CF92DF92EF92FF920F931F93CF93DF9321
S1130FC0CDB7DEB7CA1BDB0B0FB6F894DEBF0FBE7E
S1130FD0CDBF09942A88398848885F846E847D84CB
S1130FE08C849B84AA84B984C884DF80EE80FD80CD
S1130FF00C811B81AA81B981CE0FD11D0FB6F89443
S1111000DEBF0FBECDBFED010895F894FFCF03
S113100E060604060C06060A03030C17040A190145
S113101E00040A0A0A0A0400040A111111110A042E
S113102E000804060B111B0E01060C1E13111B0ED9
S113103E1F1111111111111F1F1113171D19111F3A
S113104E202020457869742020200043203E204B28
S113105E203E0046002020204C6967687420200042
S113106E2020204E614E004300204B003C202020C7
S111107E20204578697420202020203E0000A8
S9030000FC
